{
  "contractName": "Session",
  "abi": [
    {
      "inputs": [],
      "stateMutability": "nonpayable",
      "type": "constructor"
    },
    {
      "inputs": [],
      "name": "admin",
      "outputs": [
        {
          "internalType": "address",
          "name": "",
          "type": "address"
        }
      ],
      "stateMutability": "view",
      "type": "function"
    },
    {
      "inputs": [],
      "name": "countStudent",
      "outputs": [
        {
          "internalType": "uint256",
          "name": "",
          "type": "uint256"
        }
      ],
      "stateMutability": "view",
      "type": "function"
    },
    {
      "inputs": [
        {
          "internalType": "address",
          "name": "",
          "type": "address"
        }
      ],
      "name": "persons",
      "outputs": [
        {
          "internalType": "string",
          "name": "IsStudent",
          "type": "string"
        },
        {
          "internalType": "string",
          "name": "name",
          "type": "string"
        },
        {
          "internalType": "uint8",
          "name": "age",
          "type": "uint8"
        },
        {
          "internalType": "string",
          "name": "placeHold",
          "type": "string"
        },
        {
          "internalType": "uint256",
          "name": "classStudy",
          "type": "uint256"
        }
      ],
      "stateMutability": "view",
      "type": "function"
    },
    {
      "inputs": [
        {
          "internalType": "uint256",
          "name": "",
          "type": "uint256"
        }
      ],
      "name": "totalAddressOfStudent",
      "outputs": [
        {
          "internalType": "address",
          "name": "",
          "type": "address"
        }
      ],
      "stateMutability": "view",
      "type": "function"
    },
    {
      "inputs": [
        {
          "internalType": "address",
          "name": "_addressStuednt",
          "type": "address"
        },
        {
          "internalType": "string",
          "name": "_IsStudent",
          "type": "string"
        },
        {
          "internalType": "string",
          "name": "_name",
          "type": "string"
        },
        {
          "internalType": "uint8",
          "name": "_age",
          "type": "uint8"
        },
        {
          "internalType": "string",
          "name": "_placeHold",
          "type": "string"
        },
        {
          "internalType": "uint256",
          "name": "_class",
          "type": "uint256"
        }
      ],
      "name": "addDataOffStudentToAdmin",
      "outputs": [],
      "stateMutability": "nonpayable",
      "type": "function"
    },
    {
      "inputs": [
        {
          "internalType": "string",
          "name": "_IsStudent",
          "type": "string"
        },
        {
          "internalType": "string",
          "name": "_name",
          "type": "string"
        },
        {
          "internalType": "uint8",
          "name": "_age",
          "type": "uint8"
        },
        {
          "internalType": "string",
          "name": "_placeHold",
          "type": "string"
        },
        {
          "internalType": "uint256",
          "name": "_class",
          "type": "uint256"
        }
      ],
      "name": "addDataOffStudenrToCumstom",
      "outputs": [],
      "stateMutability": "nonpayable",
      "type": "function"
    },
    {
      "inputs": [
        {
          "internalType": "address",
          "name": "_addressOfStudent",
          "type": "address"
        }
      ],
      "name": "deleteDataOffStuedent",
      "outputs": [],
      "stateMutability": "nonpayable",
      "type": "function"
    }
  ],
  "bytecode": "0x608060405234801561001057600080fd5b5033600160006101000a81548173ffffffffffffffffffffffffffffffffffffffff021916908373ffffffffffffffffffffffffffffffffffffffff160217905550611735806100616000396000f3fe608060405234801561001057600080fd5b506004361061007d5760003560e01c80638ada2cf61161005b5780638ada2cf6146100ec5780639119c68314610120578063f53cf9fc1461013c578063f851a440146101585761007d565b806303627e70146100825780633e2d7c92146100a057806377f33651146100bc575b600080fd5b61008a610176565b6040516100979190610efc565b60405180910390f35b6100ba60048036038101906100b59190611134565b61017c565b005b6100d660048036038101906100d19190611215565b610539565b6040516100e39190611251565b60405180910390f35b6101066004803603810190610101919061126c565b610578565b604051610117959493929190611330565b60405180910390f35b61013a60048036038101906101359190611398565b610753565b005b6101566004803603810190610151919061126c565b610b10565b005b610160610e1a565b60405161016d9190611251565b60405180910390f35b60005481565b3373ffffffffffffffffffffffffffffffffffffffff16600160009054906101000a900473ffffffffffffffffffffffffffffffffffffffff1673ffffffffffffffffffffffffffffffffffffffff161461020c576040517f08c379a0000000000000000000000000000000000000000000000000000000008152600401610203906114b3565b60405180910390fd5b6000600190506000600380549050141561022957600190506102c9565b60005b6003805490508110156102c7576003818154811061024d5761024c6114d3565b5b9060005260206000200160009054906101000a900473ffffffffffffffffffffffffffffffffffffffff1673ffffffffffffffffffffffffffffffffffffffff168873ffffffffffffffffffffffffffffffffffffffff1614156102b457600091506102c7565b80806102bf90611531565b91505061022c565b505b80156104f5576003879080600181540180825580915050600190039060005260206000200160009091909190916101000a81548173ffffffffffffffffffffffffffffffffffffffff021916908373ffffffffffffffffffffffffffffffffffffffff16021790555085600260008973ffffffffffffffffffffffffffffffffffffffff1673ffffffffffffffffffffffffffffffffffffffff1681526020019081526020016000206000019080519060200190610388929190610e40565b5084600260008973ffffffffffffffffffffffffffffffffffffffff1673ffffffffffffffffffffffffffffffffffffffff16815260200190815260200160002060010190805190602001906103df929190610e40565b5083600260008973ffffffffffffffffffffffffffffffffffffffff1673ffffffffffffffffffffffffffffffffffffffff16815260200190815260200160002060020160006101000a81548160ff021916908360ff16021790555082600260008973ffffffffffffffffffffffffffffffffffffffff1673ffffffffffffffffffffffffffffffffffffffff1681526020019081526020016000206003019080519060200190610491929190610e40565b5081600260008973ffffffffffffffffffffffffffffffffffffffff1673ffffffffffffffffffffffffffffffffffffffff168152602001908152602001600020600401819055506000808154809291906104eb90611531565b9190505550610530565b6040517f08c379a0000000000000000000000000000000000000000000000000000000008152600401610527906115ec565b60405180910390fd5b50505050505050565b6003818154811061054957600080fd5b906000526020600020016000915054906101000a900473ffffffffffffffffffffffffffffffffffffffff1681565b600260205280600052604060002060009150905080600001805461059b9061163b565b80601f01602080910402602001604051908101604052809291908181526020018280546105c79061163b565b80156106145780601f106105e957610100808354040283529160200191610614565b820191906000526020600020905b8154815290600101906020018083116105f757829003601f168201915b5050505050908060010180546106299061163b565b80601f01602080910402602001604051908101604052809291908181526020018280546106559061163b565b80156106a25780601f10610677576101008083540402835291602001916106a2565b820191906000526020600020905b81548152906001019060200180831161068557829003601f168201915b5050505050908060020160009054906101000a900460ff16908060030180546106ca9061163b565b80601f01602080910402602001604051908101604052809291908181526020018280546106f69061163b565b80156107435780601f1061071857610100808354040283529160200191610743565b820191906000526020600020905b81548152906001019060200180831161072657829003601f168201915b5050505050908060040154905085565b3373ffffffffffffffffffffffffffffffffffffffff16600160009054906101000a900473ffffffffffffffffffffffffffffffffffffffff1673ffffffffffffffffffffffffffffffffffffffff1614156107e4576040517f08c379a00000000000000000000000000000000000000000000000000000000081526004016107db906114b3565b60405180910390fd5b6000600190506000600380549050141561080157600190506108a1565b60005b60038054905081101561089f5760038181548110610825576108246114d3565b5b9060005260206000200160009054906101000a900473ffffffffffffffffffffffffffffffffffffffff1673ffffffffffffffffffffffffffffffffffffffff163373ffffffffffffffffffffffffffffffffffffffff16141561088c576000915061089f565b808061089790611531565b915050610804565b505b8015610acd576003339080600181540180825580915050600190039060005260206000200160009091909190916101000a81548173ffffffffffffffffffffffffffffffffffffffff021916908373ffffffffffffffffffffffffffffffffffffffff16021790555085600260003373ffffffffffffffffffffffffffffffffffffffff1673ffffffffffffffffffffffffffffffffffffffff1681526020019081526020016000206000019080519060200190610960929190610e40565b5084600260003373ffffffffffffffffffffffffffffffffffffffff1673ffffffffffffffffffffffffffffffffffffffff16815260200190815260200160002060010190805190602001906109b7929190610e40565b5083600260003373ffffffffffffffffffffffffffffffffffffffff1673ffffffffffffffffffffffffffffffffffffffff16815260200190815260200160002060020160006101000a81548160ff021916908360ff16021790555082600260003373ffffffffffffffffffffffffffffffffffffffff1673ffffffffffffffffffffffffffffffffffffffff1681526020019081526020016000206003019080519060200190610a69929190610e40565b5081600260003373ffffffffffffffffffffffffffffffffffffffff1673ffffffffffffffffffffffffffffffffffffffff16815260200190815260200160002060040181905550600080815480929190610ac390611531565b9190505550610b08565b6040517f08c379a0000000000000000000000000000000000000000000000000000000008152600401610aff906115ec565b60405180910390fd5b505050505050565b600060019050600080600090505b600380549050811015610bbc5760038181548110610b3f57610b3e6114d3565b5b9060005260206000200160009054906101000a900473ffffffffffffffffffffffffffffffffffffffff1673ffffffffffffffffffffffffffffffffffffffff163373ffffffffffffffffffffffffffffffffffffffff161415610ba95760009250809150610bbc565b8080610bb490611531565b915050610b1e565b508115610bfe576040517f08c379a0000000000000000000000000000000000000000000000000000000008152600401610bf5906116df565b60405180910390fd5b60038181548110610c1257610c116114d3565b5b9060005260206000200160006101000a81549073ffffffffffffffffffffffffffffffffffffffff021916905560405180602001604052806000815250600260008573ffffffffffffffffffffffffffffffffffffffff1673ffffffffffffffffffffffffffffffffffffffff1681526020019081526020016000206000019080519060200190610ca4929190610e40565b5060405180602001604052806000815250600260008573ffffffffffffffffffffffffffffffffffffffff1673ffffffffffffffffffffffffffffffffffffffff1681526020019081526020016000206001019080519060200190610d0a929190610e40565b506000600260008573ffffffffffffffffffffffffffffffffffffffff1673ffffffffffffffffffffffffffffffffffffffff16815260200190815260200160002060020160006101000a81548160ff021916908360ff16021790555060405180602001604052806000815250600260008573ffffffffffffffffffffffffffffffffffffffff1673ffffffffffffffffffffffffffffffffffffffff1681526020019081526020016000206003019080519060200190610dcc929190610e40565b506000600260008573ffffffffffffffffffffffffffffffffffffffff1673ffffffffffffffffffffffffffffffffffffffff16815260200190815260200160002060040181905550505050565b600160009054906101000a900473ffffffffffffffffffffffffffffffffffffffff1681565b828054610e4c9061163b565b90600052602060002090601f016020900481019282610e6e5760008555610eb5565b82601f10610e8757805160ff1916838001178555610eb5565b82800160010185558215610eb5579182015b82811115610eb4578251825591602001919060010190610e99565b5b509050610ec29190610ec6565b5090565b5b80821115610edf576000816000905550600101610ec7565b5090565b6000819050919050565b610ef681610ee3565b82525050565b6000602082019050610f116000830184610eed565b92915050565b6000604051905090565b600080fd5b600080fd5b600073ffffffffffffffffffffffffffffffffffffffff82169050919050565b6000610f5682610f2b565b9050919050565b610f6681610f4b565b8114610f7157600080fd5b50565b600081359050610f8381610f5d565b92915050565b600080fd5b600080fd5b6000601f19601f8301169050919050565b7f4e487b7100000000000000000000000000000000000000000000000000000000600052604160045260246000fd5b610fdc82610f93565b810181811067ffffffffffffffff82111715610ffb57610ffa610fa4565b5b80604052505050565b600061100e610f17565b905061101a8282610fd3565b919050565b600067ffffffffffffffff82111561103a57611039610fa4565b5b61104382610f93565b9050602081019050919050565b82818337600083830152505050565b600061107261106d8461101f565b611004565b90508281526020810184848401111561108e5761108d610f8e565b5b611099848285611050565b509392505050565b600082601f8301126110b6576110b5610f89565b5b81356110c684826020860161105f565b91505092915050565b600060ff82169050919050565b6110e5816110cf565b81146110f057600080fd5b50565b600081359050611102816110dc565b92915050565b61111181610ee3565b811461111c57600080fd5b50565b60008135905061112e81611108565b92915050565b60008060008060008060c0878903121561115157611150610f21565b5b600061115f89828a01610f74565b965050602087013567ffffffffffffffff8111156111805761117f610f26565b5b61118c89828a016110a1565b955050604087013567ffffffffffffffff8111156111ad576111ac610f26565b5b6111b989828a016110a1565b94505060606111ca89828a016110f3565b935050608087013567ffffffffffffffff8111156111eb576111ea610f26565b5b6111f789828a016110a1565b92505060a061120889828a0161111f565b9150509295509295509295565b60006020828403121561122b5761122a610f21565b5b60006112398482850161111f565b91505092915050565b61124b81610f4b565b82525050565b60006020820190506112666000830184611242565b92915050565b60006020828403121561128257611281610f21565b5b600061129084828501610f74565b91505092915050565b600081519050919050565b600082825260208201905092915050565b60005b838110156112d35780820151818401526020810190506112b8565b838111156112e2576000848401525b50505050565b60006112f382611299565b6112fd81856112a4565b935061130d8185602086016112b5565b61131681610f93565b840191505092915050565b61132a816110cf565b82525050565b600060a082019050818103600083015261134a81886112e8565b9050818103602083015261135e81876112e8565b905061136d6040830186611321565b818103606083015261137f81856112e8565b905061138e6080830184610eed565b9695505050505050565b600080600080600060a086880312156113b4576113b3610f21565b5b600086013567ffffffffffffffff8111156113d2576113d1610f26565b5b6113de888289016110a1565b955050602086013567ffffffffffffffff8111156113ff576113fe610f26565b5b61140b888289016110a1565b945050604061141c888289016110f3565b935050606086013567ffffffffffffffff81111561143d5761143c610f26565b5b611449888289016110a1565b925050608061145a8882890161111f565b9150509295509295909350565b7f4f6e6c792061646d696e2063616e207265736f766c6520656e797468696e6700600082015250565b600061149d601f836112a4565b91506114a882611467565b602082019050919050565b600060208201905081810360008301526114cc81611490565b9050919050565b7f4e487b7100000000000000000000000000000000000000000000000000000000600052603260045260246000fd5b7f4e487b7100000000000000000000000000000000000000000000000000000000600052601160045260246000fd5b600061153c82610ee3565b91507fffffffffffffffffffffffffffffffffffffffffffffffffffffffffffffffff82141561156f5761156e611502565b5b600182019050919050565b7f41646472657373206f662073747564656e74206578697465642120506c65617360008201527f652075736520616e206f74686f72206164647265737300000000000000000000602082015250565b60006115d66036836112a4565b91506115e18261157a565b604082019050919050565b60006020820190508181036000830152611605816115c9565b9050919050565b7f4e487b7100000000000000000000000000000000000000000000000000000000600052602260045260246000fd5b6000600282049050600182168061165357607f821691505b602082108114156116675761166661160c565b5b50919050565b7f41646472657373206f662073747564656e74206e6f742065786974656421205060008201527f6c6561736520636865636b2064617461206f662073747564656e740000000000602082015250565b60006116c9603b836112a4565b91506116d48261166d565b604082019050919050565b600060208201905081810360008301526116f8816116bc565b905091905056fea2646970667358221220cf5d6472583a53980b9975c045c50a982fc36d4590a775f61d8b3c851bc13b6264736f6c634300080b0033",
  "immutableReferences": {},
  "source": "pragma solidity >=0.7.0 <0.9.0;\r\n\r\ncontract Session{\r\n     struct Person{\r\n         string IsStudent;\r\n         string name;\r\n         uint8 age;\r\n         string placeHold;\r\n         uint classStudy;\r\n     }\r\n\r\n     uint public countStudent;\r\n     address public admin;\r\n     mapping(address => Person) public persons;\r\n     address[] public totalAddressOfStudent;\r\n\r\n     constructor() {\r\n         admin = msg.sender;\r\n     }\r\n\r\n     modifier onlyAdmin(){\r\n      require(admin == msg.sender, \"Only admin can resovle enything\");\r\n      _;\r\n     }\r\n\r\n     modifier onlyCumstomer(){\r\n          require(admin != msg.sender, \"Only admin can resovle enything\");\r\n          _;\r\n     }\r\n     \r\n     function addDataOffStudentToAdmin(address _addressStuednt, string memory _IsStudent, string memory _name, uint8 _age, string memory _placeHold, uint _class)  public onlyAdmin {\r\n        bool statusAdding = true;\r\n        if(totalAddressOfStudent.length == 0){\r\n            statusAdding = true;\r\n        }else{\r\n            for(uint i = 0 ; i < totalAddressOfStudent.length ; i++){\r\n                if(_addressStuednt == totalAddressOfStudent[i]){\r\n                    statusAdding = false;\r\n                    break;\r\n                }\r\n            } \r\n        }\r\n         if(statusAdding){\r\n                totalAddressOfStudent.push(_addressStuednt);\r\n                persons[_addressStuednt].IsStudent = _IsStudent;\r\n                persons[_addressStuednt].name = _name;\r\n                persons[_addressStuednt].age = _age;\r\n                persons[_addressStuednt].placeHold = _placeHold;\r\n                persons[_addressStuednt].classStudy = _class;\r\n                countStudent++;\r\n            }else{\r\n                revert(\"Address of student exited! Please use an othor address\");\r\n            }\r\n     }\r\n\r\n     function addDataOffStudenrToCumstom(string memory _IsStudent, string memory _name, uint8 _age, string memory _placeHold, uint _class) public onlyCumstomer{\r\n        bool statusAdding = true;\r\n        if(totalAddressOfStudent.length == 0){\r\n            statusAdding = true;\r\n        }else{\r\n            for(uint i = 0 ; i < totalAddressOfStudent.length ; i++){\r\n                if(msg.sender == totalAddressOfStudent[i]){\r\n                    statusAdding = false;\r\n                    break;\r\n                }\r\n            } \r\n        }\r\n        if(statusAdding){\r\n            totalAddressOfStudent.push(msg.sender);\r\n            persons[msg.sender].IsStudent = _IsStudent;\r\n            persons[msg.sender].name = _name;\r\n            persons[msg.sender].age = _age;\r\n            persons[msg.sender].placeHold = _placeHold;\r\n            persons[msg.sender].classStudy = _class;\r\n            countStudent++;\r\n        }else{\r\n            revert(\"Address of student exited! Please use an othor address\");\r\n        }\r\n     }\r\n\r\n     function deleteDataOffStuedent(address _addressOfStudent) public {\r\n        bool statusAdding = true;\r\n        uint positionData;\r\n        for(uint i = 0 ; i < totalAddressOfStudent.length ; i++){\r\n            if(msg.sender == totalAddressOfStudent[i]){\r\n                statusAdding = false;\r\n                positionData = i;\r\n                break;\r\n            }\r\n        } \r\n\r\n        if(statusAdding){\r\n            revert(\"Address of student not exited! Please check data of student\");\r\n        }else{\r\n            delete totalAddressOfStudent[positionData];\r\n            persons[_addressOfStudent].IsStudent = \"\";\r\n            persons[_addressOfStudent].name = \"\";\r\n            persons[_addressOfStudent].age = 0;\r\n            persons[_addressOfStudent].placeHold = \"\";\r\n            persons[_addressOfStudent].classStudy = 0;\r\n        }\r\n     }\r\n}",
  "sourcePath": "C:\\Users\\Admin\\Desktop\\PEOJECT\\TruffleStudent\\contracts\\PersonData.sol",
  "compiler": {
    "name": "solc",
    "version": "0.8.11+commit.d7f03943.Emscripten.clang"
  },
  "schemaVersion": "3.4.4",
  "updatedAt": "2022-02-11T08:19:34.452Z",
  "devdoc": {
    "kind": "dev",
    "methods": {},
    "version": 1
  },
  "userdoc": {
    "kind": "user",
    "methods": {},
    "version": 1
  }
}